:020000040804EE
:1000000000000824E1E806082DE9060839F705088C
:100010003FF7050845F705084BF705080000000005
:100020000000000000000000000000005D5904080E
:100030002DE9060800000000F7590408075A0408D3
:100040002DE906082DE906082DE906082DE9060820
:100050002DE906082DE906082DE906082DE9060810
:100060002DE906082DE906082DE906082DE9060800
:100070002DE906082DE906082DE906082DE90608F0
:100080002DE906082DE906082DE90608DDF4060825
:10009000EDF40608E9F40608F9F406082DE9060867
:1000A0002DE906082DE906082DE906082DE90608C0
:1000B0002DE906082DE906082DE906082DE90608B0
:1000C0002DE906082DE906082DE906082DE90608A0
:1000D0002DE906082DE906082DE906082DE9060890
:1000E0002DE906082DE90608000000002DE90608A4
:1000F0002DE906082DE906082DE906082DE9060870
:100100002DE9060869E006082DE906082DE906082C
:100110002DE906082DE906082DE906082DE906084F
:100120002DE906082DE906082DE906082DE906083F
:100130002DE906082DE906082DE906082DE906082F
:100140002DE906082DE90608000000000000000067
:100150002DE906082DE906082DE906082DE906080F
:100160002DE906082DE906082DE906082DE90608FF
:100170002DE906082DE906082DE906080000000013
:100180002DE906082DE906082DE906082DE90608DF
:100190002DE906082DE906082DE906082DE90608CF
:1001A000F51404082DE906082DE906082DE90608CE
:1001B0002DE906082DE906082DE906082DE90608AF
:1001C0002DE906082DE906082DE906082DE906089F
:1001D0002DE906082DE906082DE906082DE906088F
:1001E0002DE906082DE906082DE906082DE906087F
:1001F0002DE906082DE906082DE906082DE906086F
:100200002DE906082DE906082DE906082DE906085E
:100210002DE906082DE906082DE906082DE906084E
:100220002DE906082DE906082DE906082DE906083E
:100230002DE90608DDE806082DE906082DE906087F
:100240002DE906082DE906082DE906082DE906081E
:100250002DE906082DE906082DE906082DE906080E
:100260002DE906082DE906082DE906082DE90608FE
:100270002DE906082DE906082DE906082DE90608EE
:100280002DE906082DE906082DE906080000000002
:100290002DE906082DE9060810B5054C237833B979
:1002A000044B13B10448AFF300800123237010BD49
:1002B0006015002400000000A057080808B5034B93
:1002C0001BB103490348AFF3008008BD00000000E4
:1002D00064150024A0570808154B002B08BF134BCA
:1002E0009D46A3F5803A00218B460F461348144AD9
:1002F000121A36F015FD0F4B002B00D098470E4B0D
:10030000002B00D098470020002104000D000D486C
:10031000002802D00C4820F09FF935F0BFFE2000E5
:10032000290007F099FD20F0B1FB00BF0000080094
:100330000000082400000000B57D040860150024BA
:10034000D82F01245906060800000000002070473D
:100350000069003018BF01207047000010B58AB056
:100360001B4907A805F0D3F805F024FA01460A2234
:1003700004A805F0EBF804A907A805F045F9014623
:1003800001A805F004F904A805F076F807A805F01F
:1003900073F801A90F4804F0F9FF0CE004A805F078
:1003A0006BF807A805F068F832F088FCF9E701A8B7
:1003B00005F062F8F8E70124074A084B01A81C6021
:1003C00013782344137005F057F820460AB010BD87
:1003D0005CD80708B84600247C15002404000024DB
:1003E000C3680BB19B681847704700002DE9F04FB8
:1003F00093B007460E4663490CA8DFF8B4A103F09A
:1004000081F8604802F0E7FA80464FF4806036F0E9
:1004100037F85D4A002304461578914601938DF81C
:10042000083003938DF8103005938DF8183007933A
:100430008DF820306DB116FB05F5DAF80020013596
:1004400002F50052EDB212889542A4BF1D4689F80C
:1004500000304E494E4804F085FF99F800100A22FA
:100460004B4804F0FFFFDAF8003005EB06090A22DA
:1004700003F5005305A95FFA89F9DFF83CB11B8841
:100480009945C8BF5FFA83F9484605F033F9DAF8B1
:1004900000300A2207A903F50053DFF820A11888CD
:1004A00005F028F90A2203A9284605F023F939495D
:1004B000204637F073F941462046DFF8DC8036F0FD
:1004C0006BFF3549204636F067FF3449204636F049
:1004D00063FF0CA909A804F0F1FE0999204636F043
:1004E0005BFF09A804F0C8FF2D49204636F054FFF1
:1004F0002C49204636F050FF03A9204636F04CFF29
:100500002949204636F048FF05A9204636F044FF29
:100510002649204636F040FF07A9204636F03CFF2A
:100520001F49204636F038FFA9451BDD0A2201A9E4
:10053000284605F0DFF85946204636F02DFF01A980
:10054000204636F029FF5146204636F025FF20464A
:1005500007EB0521013536F01FFF4146204636F0F6
:100560001BFFE1E7124B1B6803F500531B88B342E6
:1005700003D91049204636F00FFF204613B0BDE8DE
:10058000F08F00BFF44000247C15002498D80708A1
:10059000B8460024A1D90708AF0D0808A7D8070856
:1005A000AE0D0808ACD80708B3D80708B7D80708B5
:1005B00028000024C4D80708BBD80708C0D80708FB
:1005C00030B5164C87B0164D1649204604F0CAFEC9
:1005D000284602F000FA0146204604F0E1FE2946D2
:1005E000684602F08FFF1049204604F0BBFE6946C2
:1005F000204604F0DFFE284602F03EFA05460B498D
:10060000204604F0AFFE0A222946204604F0F9FEF7
:100610000749204604F0C4FE07B030BDB8460024A8
:10062000F4400024A1D907086ED807087BD8070832
:1006300093D8070810B50446FFF7D2FE204610BD38
:10064000084B10B50446036002F025FCD4F83401D1
:1006500008B120F0ECFA04F59270FFF7EBFF2046AA
:1006600010BD00BF18E4070810B50446FFF7E8FF07
:100670004FF4AE71204620F079FA204610BD0000FC
:10068000034B10B504460360FFF7DAFF204610BDA8
:100690001CD8070810B50446FFF7F2FF4FF4AE71FF
:1006A000204620F063FA204610BD2DE9F04100F10C
:1006B000140400F5A07700254FF00108A4F11403FD
:1006C0009F4220D954F8143CA3B105F073F854F8B4
:1006D0000C3C54F8082C0646C31A9A420AD854E92E
:1006E0000530984740B154F8043C2BB144F8048CD1
:1006F00044F80C6C1434E1E744E9055544E903552A
:1007000044F8045CF6E7BDE8F081000038B50E4C13
:100710000E4D204602F0C0FC0D4B20462A462360B9
:100720000C4C0D491FF096FF204600F0BDF92A46FB
:100730000A4920461FF08EFF4FF4A072002108489E
:1007400036F0EEFA38BD00BF80150024000000240A
:100750001CD80708DC16002481060408D10A040806
:100760001C37002438B5054631B1064C002120461F
:1007700000F075FB0023236129460248BDE838409C
:1007800004F0F0BDDC1600242DE9F843454C464842
:1007900004F59675FFF789FF05F00CF854F8143C42
:1007A0002BB9AC4204F114030AD21C46F6E705F05B
:1007B00001F854F80C3CC01A54F8083C9842F0D3A5
:1007C0003A4E04F0F7FF3A4D3A4C304602F022FB25
:1007D000002833D0304602F02CFBC0B20A2819D0D2
:1007E0002A68238802F50051098802EB0122D054BF
:1007F000013323804FF6FD7322889A4284BF002381
:1008000023802B6803F500531A88FD2ADDD90022C6
:100810001A80D9E72B6803F500521188228803EB70
:100820000123002199542B68218003F500531A8875
:1008300001321A800122204B1A70DBE71B4802F0BC
:10084000DBFA074658BB1D4BDFF86C901C689846D6
:10085000012C16D199F80060154DD6B118491948E8
:1008600004F09EFD3A4606212868FFF7BFFD0546C5
:100870002146FFF777FF284635F00AFE0023C8F827
:1008800000300023094889F80030BDE8F84302F041
:1008900002BB0D490B4804F083FD3246E3E7BDE897
:1008A000F88300BF303700241C3700248015002453
:1008B000280000247E1500247D1500240400002457
:1008C000D8D80708B846002405D9070870B5494CA0
:1008D0004FF4E131474803F05BF9204602F05EFF38
:1008E0000028FAD0444B42F20202444C002118681E
:1008F00036F016FA204600F009FA5A21204601F097
:100900003CF90021204600F0AAFA0321204601F01C
:100910003DFB00233A492046236104F041FD39495B
:10092000204604F01FFD3849204604F01BFD3748DF
:1009300002F0AAF8FF2818D0354C364E2D4D23680A
:10094000032B17D03146284604F00CFD32492846C7
:1009500004F026FD314A30492C4802F0BDF92060F0
:1009600040F6B83004F038FFE9E72D49214804F09B
:1009700017FDFEE72B491F4804F012FDFFF720FE8C
:1009800029491C4804F00CFD50221F49274802F059
:100990000BFDB0B12649174804F002FD2549234854
:1009A00004F0FEFC2449214804F0DCFC16491F48F1
:1009B00004F0F6FC21491D4804F0F2FC1B4804F049
:1009C000DFFC1F490B4804F0EBFC04F0F3FE1D4B69
:1009D00003F5A0711A681AB114338B42FAD370BDB3
:1009E00019499860C3E900124FF4FA610122C3E982
:1009F0000312F4E7B846002428000024DC16002483
:100A000040D907084BD907081B000024F4400024F4
:100A10001837002488D907082C0000240800002477
:100A200061D90708A8D90708BAD907088015002492
:100A3000DCD90708F0D9070809DA070810DA07082F
:100A400022DA07081C3700245D030408014801F07E
:100A500083BF00BFF440002470477047704773B5F0
:100A6000064602250121084620F0D8FB746A00F0F2
:100A700031FD009501464FF4487320464FF4F07263
:100A800000F0C8FA0A2004F0A7FEEBE70B68036049
:100A90004B6843608B68836070470121406B20F096
:100AA000CFBC0022C260704710B54FF448724FF4BB
:100AB000F071044601F072F8044B204623600023D5
:100AC000636284F82C30236310BD00BF44DA07084A
:100AD000044B10B504460360406A08B135F0D8FCF9
:100AE000204610BD44DA070830B5B0F90840BDF81B
:100AF0000C5004FB0212446A002104EB42020CB2C7
:100B0000A34206DD15800131B0F9084002EB440232
:100B1000F5E730BD30B5B0F90840BDF80C5004FB26
:100B200002121344934204D9416A21F8125001324F
:100B3000F8E730BD002B70B41446BDF80C500ADA4B
:100B40009EB2531C9BB2F41824B2002CADBF73426A
:100B50001BB200241BB200293BDBB0F90C208A42F7
:100B600037DDB0F90E20944233DAE618002E30DD7E
:100B7000002CBCBF33B20024E6189642C8BF131B3A
:100B8000827EC8BF1BB222B92246039570BCFFF714
:100B9000ABBF012A08D102890395141B0A46E41A47
:100BA00021B270BCFFF7B6BF022A09D102890395B2
:100BB000013A511A4289121B09B2D21A12B2E5E760
:100BC000032A06D142890395013A521A214612B2EC
:100BD000E7E770BC7047002B70B41446BDF80C609A
:100BE0000ADA9DB24B1C9BB2E91809B20029ADBFCD
:100BF0006B421BB200211BB2002C3BDBB0F90E2074
:100C0000A24237DDB0F90C20914233DACD18002D25
:100C100030DD0029BCBF2BB20021CD189542A8BF02
:100C2000531A827EA8BF1BB222B92246039670BC1B
:100C3000FFF770BF012A08D102890396013A141BFD
:100C40000A4621B270BCFFF74FBF022A09D1428980
:100C50000589013A0396691A121BC91A12B209B220
:100C6000E5E7032A06D142890396511ACA1A21469A
:100C700012B2E7E770BC704710B504460021FFF7D9
:100C800010FF204610BD10B50446FFF7A9FB204613
:100C900010BD10B4D0E9003409686210E4075DF8B3
:100CA000044B01EB020044BF8A58D3581847014651
:100CB000043008B5FFF7EDFF08BD0000034A034606
:100CC000C26007C983E80700704700BF30DA070831
:100CD00010B586B004460391684606A980E80C006A
:100CE00001E90C00204603A9FFF7E8FF204606B003
:100CF00010BD37B56C46054684E80C0094E80C003E
:100D0000FFF7E6FF284603B030BD00002DE9F043B1
:100D1000054689B014201FF0F5FE2F4B4FF44872A2
:100D20004FF4F071044600F0BFF8AC62204600F0CA
:100D3000E1F8EB89A88910FB03F0400001F0D2FD37
:100D40006862BC201FF0DEFE04460746234B04F118
:100D5000400847F8043B3846FFF78EFF0021404625
:100D600020F0F4F904F15409484620F08FF90026E8
:100D70004FF48052282120460096334620F0ACFAEA
:100D8000174B294604A86C63CDE9023602AB0CCBA5
:100D9000FFF7AFFF04A9204620F0AAFA10E048466A
:100DA00020F0B2F9404620F010FA3846FFF76BFF0A
:100DB000BC2120461FF0DAFE31F080FFF2E7F4E7B5
:100DC00004A8FFF760FF09B0BDE8F0831421F0E745
:100DD00004A8FFF758FFEFE7400000240C150808AF
:100DE0005F0A0408436A10B504460BB9FFF78EFF8B
:100DF000606A10BDF8B506460C4615461F46FFF75B
:100E0000F1FFE8B1002C1BDB002D19DBB6F90C302B
:100E1000A34215DDB6F90E30AB4211DDB37EB6F953
:100E20000800022B0DD0032B13D0012B03D1EA4372
:100E30002546024414B205FB0044736A23F814707B
:100E4000F8BDE443ED4372890444154424B22DB245
:100E5000F1E7E443718921442C460DB2EBE738B544
:100E600004460D46FFF7BEFFA8B163892912228907
:100E700012FB03F2EBB2994205D1606A5200BDE861
:100E8000384035F04DBF00239A4204D0616A21F802
:100E900013500133F8E738BD08B5FFF708FF08BD68
:100EA00008B5FFF7F9FF08BDF8B5044603600E4624
:100EB0001546C0E90312186847681846B84707285E
:100EC000A06013D8012303FA00F010F0F70F06D149
:100ED00003070BD5B542CCBF0025012503E0B54281
:100EE000D4BF0025012525712046F8BD00232371BC
:100EF000FAE7000008B5036881681A6818461268A6
:100F0000904700F005F90146024801F079FB002006
:100F100008BD00BF8440002403207047C8B208B554
:100F200000F02EFB002008BD30B5114A8FB0002321
:100F3000022514680A91FF210E4A01931268ADF848
:100F400034308DF8363004920595CDE90613CDE99D
:100F500002434FF4C0610723CDE90B42CDE90813EA
:100F6000024601A9044828F0B3F80FB030BD00BF15
:100F70004400002448000024683800242DE9F3418F
:100F8000144C0F4690464FF440310222E360124B5E
:100F900006462046089D2360C4E9011226F091F917
:100FA000A0B90121204626F061FA78B9CDF8008079
:100FB0003B4632462946204626F0C0F930B9192171
:100FC000204602B0BDE8F04126F0D2B902B0BDE83B
:100FD000F08100BF1039002400100052094B342268
:100FE00013B51C68084B04F001040849009002FB8B
:100FF0000434074A002309681268E06DFFF7BEFF5A
:1010000002B010BD64380024683800244400002475
:10101000480000242DE9F74F14461E46364A0023A7
:1010200005460F460C98C2F88430BFF34F8FD2F8B4
:10103000803043F6E0799446C3F3C90EC3F34E33D0
:101040004FEA8E785B0103EA090B41467246013A8A
:101050004BEA010A01F14041B2F1FF3FCCF874A222
:10106000F5D1203B13F1200FEDD1BFF34F8FBFF32C
:101070006F8FBFF34F8FBFF36F8F0023CCF85032C9
:10108000BFF34F8FBFF36F8F1C4B02224FF48031A1
:10109000C3E901121A4A1268121BDA6047B9194AE9
:1010A00034271949126802F0010207FB0212D76DBA
:1010B00000224FF00108C3E91120C3E91382134A4B
:1010C0000E481A6026F0FDF898B941460B4826F004
:1010D000CDF970B9009623463A462946074826F0CE
:1010E0002DF930B91921054803B0BDE8F04F26F0BD
:1010F0003FB903B0BDE8F08F00ED00E010390024E7
:101100004400002464380024683800240010005291
:10111000044A054B10681B68584300F1C05080001A
:10112000704700BF4800002444000024124B1348BD
:101130001A68511C02F0010210B51960D40103684D
:10114000002A03F18403E15841F00101E15014BF8A
:10115000002180210A4CCA5822F00102CA50002303
:101160000221236027F0E1FF23681BB9012004F06E
:1011700033FBF9E710BD00BF643800246838002451
:101180009C3900242DE9F04FC74E14461368DBB09C
:101190003268C64FC64DB3FBF2F3B3F5007F84BF90
:1011A000C82333603B78BFF35B8F13F0010F0BD183
:1011B00038461FF067FA38B1236838463268B3FB07
:1011C000F2F32B601FF080FABA4FDFF8FCA23B78F5
:1011D000BFF35B8F13F0010F0DD138461FF052FAA9
:1011E00048B132684FF47A733846B3FBF2F3CAF869
:1011F00000301FF069FA2A680F2133685820DFF8A1
:10120000CC8200265343DFF8C892AB4F4FF0010B5E
:1012100023606368C8F800306369C9F80030A74BE1
:10122000D3F8E42042F00802C3F8E420D3F8E42025
:1012300002F008020392D3F88C2042F00802C3F8AF
:101240008C20D3F88C2022F00802C3F88C20D3F82D
:10125000D42042F01002C3F8D420D3F8D42002F0F6
:1012600010020492DA6F42F01002DA67DA6F22F0AD
:101270001002DA67D3F8E42042F01002C3F8E42049
:10128000D3F8E42002F010020592D3F88C2042F04B
:101290001002C3F88C20D3F88C2022F01002C3F87F
:1012A0008C20002225F0D4FE582025F003FF0022D8
:1012B0000F215A2025F0CCFE5A2025F0FBFE0022FB
:1012C0000F217B2025F0C4FE7B2025F0F3FE4FF09C
:1012D000A04338463B6026F0FCF97D22032306A993
:1012E000384608967E60CDE906230423C7E9023B11
:1012F00026F03EF994F824304FF22441D4F800C08F
:1013000013F0020FD4F80CE0119614BF32460222FB
:1013100013F0010F189617924FF002020CBF04232E
:1013200033461292169340F6FF730192CDE914638F
:10133000D8F800301393236901FB03F07344B0FB2A
:10134000FCF0199001FB0EF04FF4007EB0FBFCF0B6
:101350001A9060680344A0681844236A1C93E369E8
:1013600048434FF400411D93A369B0FBFCF01E936A
:101370004FF4006C63691B904FF400501F931023CF
:10138000CDE920134FF480510093CDE90F662296EA
:10139000CDE923014FF480613846CDE925C14FF4F2
:1013A0008071CDE927E10FA926F0DEF92321384627
:1013B0000D96CDE90911CDE90B110A210E9109A96C
:1013C00026F0C8FA009B4FF00051019A33932AA8E7
:1013D0002B683B4D349307232A913693DAF800307B
:1013E0003592379329F078FD364B28462B6027F04D
:1013F00004FE22692846531E6B61E3681A44531E9B
:10140000EB6163681A44531E6B62A3682E61013B53
:101410001A44EA62226A531EAB61E3691A44531EFE
:101420002B6263691A44531EAB62A369AE86013B0B
:1014300085F836601A44D8F800302B66D9F80030A9
:101440002A636B6694F82430DA075B076A6003F05E
:101450008043C5E9023627F063FD384626F0B6FA28
:10146000384626F0D6FA30464FF0C041FFF75CFD13
:10147000D8F80030D9F800105846594301F14051CE
:1014800001FA0BF1FFF750FD384626F043FB3046DA
:10149000FFF7A4FDFFF74AFE3046FFF79FFDFFF779
:1014A00045FE5BB0BDE8F08F4C0000245C380024A2
:1014B0007839002460380024803900240044025820
:1014C00068380024001000507C39002444000024B7
:1014D00048000024054B3421054A1B68013303F002
:1014E000010301FB0323D86D704700BF643800245B
:1014F00068380024014827F08EBD00BF68380024FA
:10150000014B01221A6070479C39002407B503463D
:10151000009113220021034826F08BFA03B05DF8F6
:1015200004FB00BF8039002407B5002103461522C3
:101530000348009126F07DFA03B05DF804FB00BF7C
:101540008039002430B50C4689B005461322013C91
:1015500003AB0021E4B2184635F0E2FB691C2246D9
:1015600035F0E0FA2B7839220021009323460190D0
:10157000024826F06FFA09B030BD00BF8039002460
:10158000BF4A342303FB002070B54368E0B0BD4C74
:101590003593C368369383693993036938934369F4
:1015A0003793C3693A93036A3D93436A3C93836AD2
:1015B0003B9390F8302000209DF8F830C2F30001F2
:1015C000C2F3400261F300033FA962F3410335AA6D
:1015D0008DF8F830FFF7D6FD0120FFF7A5FFC820F2
:1015E00004F0FAF81120FFF79FFF4FF4487004F061
:1015F000F3F8A38820680621ADF8383023460D9013
:101600000DA833F8062F9B78ADF808208DF80A3026
:10161000234633F8092F9B78ADF80C208DF80E3057
:10162000234633F80C2F9B78ADF810208DF812303C
:10163000B4F80F30ADF80430FFF784FF032102A89F
:10164000FFF780FF032103A8FFF77CFF032104A815
:10165000FFF778FF022101A8FFF774FF04F11103DF
:101660001CAA21341868083353F8041C1546A342F9
:1016700003C52A46F6D11B7821AA2B701546824B4A
:1016800003F110061868083353F8041C1446B342DB
:1016900003C42246F6D11B7811211CA823707B4C71
:1016A000FFF750FF11212846FFF74CFF2068A38861
:1016B00006210F900FA8ADF84030FFF743FF6521DA
:1016C000B020FFF723FF3421B120FFF71FFF872150
:1016D000B220FFF71BFF8021B320FFF717FF49213E
:1016E000B520FFF713FF8521B720FFF70FFF20215B
:1016F000B820FFF70BFF1021B920FFF707FF782173
:10170000C120FFF703FF7821C220FFF7FFFE8821E9
:10171000D020FFF7FBFE642004F05EF8D4F806004A
:101720000421089008A8FFF70DFF224615AB52F8D8
:101730000A0F516803C3906800210E22186018A890
:1017400035F0EEFAE2230C2115A88DF86030FFF792
:10175000F9FE0E2118A8FFF7F5FE2346052153F8E0
:10176000160F1B79099009A88DF82830234633F805
:101770001B2F9B78ADF814208DF81630FFF7E2FE92
:10178000032105A8FFF7DEFE26AA04F11E032E346E
:1017900016461868083353F8041C1546A34203C5BF
:1017A0002A46F6D11B783046394C11212B70FFF7B1
:1017B000C9FE2379206805218DF8303023460B902F
:1017C0000BA833F8052F9B78ADF818208DF81A3048
:1017D000FFF7B8FE032106A8FFF7B4FE2BAA04F119
:1017E0000803183416461868083353F8041C1546C5
:1017F000A34203C52A46F6D11B783046254C112159
:101800002B70FFF79FFE2068616813AB03C323466C
:10181000082113A833F8082F9B78ADF81C208DF809
:101820001E30FFF78FFE032107A8FFF78BFE30AABB
:1018300004F10B031B3416461868083353F8041CD4
:101840001546A34203C52A46F6D11B78304611211E
:101850002B70FFF777FE104B062118689B881190BC
:1018600011A8ADF84830FFF76DFE0A2003F0B4FF71
:101870002920FFF759FEC82003F0AEFF60B070BD0D
:1018800050000024A4DA0708C6DA0708D7DA0708E8
:1018900006DB07081FDB07083BDB07082DE9F04FD5
:1018A00085B01D4681461646BDF93840BDF83CA0BE
:1018B000A31A83EAE37BABEBE37B6B1A002BB8BF85
:1018C0005B429B45019304DC23460E462C461146A1
:1018D0001D46A64205DC2B460D46194623463446D6
:1018E0001E464B1BA6EB0408002B1FFA88F8B8BF56
:1018F0005B420FFA88F70293022397FBF3F30093FE
:101900008D42ACBF4FF0FF3301230393B4421FDC81
:10191000D9F8003048469B691F46019B9B455346BA
:10192000CBBF22462A4629462146B847009A029B49
:10193000D71ABBB21AB2002A009206DA039A08EB51
:10194000030715443BB22DB20093013424B2DDE706
:1019500005B0BDE8F08F704710B404682469A44650
:101960005DF8044B604730B40468BDF80850029538
:10197000A46BA44630BC604730B40468BDF808507E
:101980000295E46BA44630BC604770B40468BDF9AE
:101990000C50BDF81060CDE90356246CA44670BC11
:1019A00060472DE9F3411C46164603680546013C95
:1019B0000F465B693444BDF8208098472B6824B2F9
:1019C000CDF8048028463246009439469C6A3B464E
:1019D000A0472B682846DB6A02B0BDE8F0411847F3
:1019E0002DE9F3411D460368044617465B690E4620
:1019F000BDF8208098476B1E22682046314633444C
:101A0000CDE900781BB2956A3A46A847236820467C
:101A1000DB6A02B0BDE8F04118472DE9F3470C46F8
:101A20001E4603680546264417465B69BDF92880B3
:101A3000BDF82C909847B4422A680BDA214601344D
:101A4000CDF800904346D2F820A028463A4624B26A
:101A5000D047F0E7D36A284602B0BDE8F047184700
:101A6000B0F90E20B0F90C3013B5046800920022D2
:101A700001911146246CA04702B010BD2DE9F34737
:101A80001D460368044688465B691646BDF82C70FF
:101A9000BDF9289098472368324600974146D3F80D
:101AA00024A020462B46D04709F1FF322368414647
:101AB000324400972046D3F824A012B22B46D047D8
:101AC000236800973246D3F820A041464B46204673
:101AD000D047691E236820464144009732461D6A5C
:101AE00009B24B46A84723682046DB6A02B0BDE82E
:101AF000F0471847704799422DE9F34780460C4656
:101B000015469946BDF92860BDF82CA0076810D18C
:101B1000B242CDF828A0DEBF334616461D463246F7
:101B20006B1CBD6B9B1BAC461BB202B0BDE8F04703
:101B30006047B2420DD19942CDF828A0DCBF1C46C7
:101B40008946631CFC6B4946A3EB0903A4461BB200
:101B5000EBE77B699847D8F8003040462A46214693
:101B6000CDE9006A9E6A4B46B047D8F8003040463F
:101B7000DB6A02B0BDE8F047184701F00301B0F995
:101B80000830B0F90A200129817604D0032902D057
:101B90008381C28170478281C38170474281C28143
:101BA0004FF0FF320181426140F2011281810283D4
:101BB000012230B50024044DC27644600560046102
:101BC00084760477046230BDB8E007082DE9F04F51
:101BD00091B091461F46026ABDF8683004460591EF
:101BE0000293BDF86CA09DF870609DF87450002AB7
:101BF00040F0B880B0F90C308B4240F33881B0F936
:101C00000E304B4540F33381062313FB0613002BA4
:101C100040F32D8109EBC503002B40F32881037F9E
:101C20001BB9AF2F84BF0137FFB2236820464FF0A6
:101C300000085B69984705230A931FFA89F3069306
:101C400005238C4A13FB0783D35C0793B3B2089335
:101C5000BDF814300393039A089B08FB03231BB2BF
:101C6000099308230B930023049312FA88F31BB201
:101C70000C93079A2368D2074DD5012EBDF810208A
:101C80003AD1012D38D10699D3F818B00A44029BF5
:101C900012B20C992046D847049B01335BB20493DF
:101CA000079B5B0807930B9B013B13F0FF030B9310
:101CB000DFD10A9B08F10108013B4FFA88F813F0C5
:101CC000FF030A93BCD1029B53450ED0012E23681B
:101CD00037D1012D35D103994A46CDF800A02046D1
:101CE00005311D6A082309B2A84723682046DB6A2C
:101CF00011B0BDE8F04F1847069915FB02F20A44EF
:101D000002990191009512B2D3F81CB020463346D7
:101D10000999D847C0E7029A5245BDD0012EBDF8B7
:101D2000102007D1012D05D10699D3F818B05346DC
:101D30000A44ADE715FB02F20699CDF804A00A4467
:101D4000E0E7089AED00CDF804A0204602EB8201FE
:101D5000039A00950A44DD69334611464A4609B2A2
:101D6000A847C2E7137A012E5168A7EB0307126850
:101D7000FFB20D9201EBC70331F8372003929A7836
:101D800093F906B00792DA780B9293F9052008923E
:101D900001D8012D51D9BDF9203006930FFA8BF3EC
:101DA0000493236820464FF000085B699847C246B9
:101DB0001FFA89F3474609935B440F930B9B9F429D
:101DC00093D2049B4FF00009099A3B4403FB05237F
:101DD0000F9A1BB23A440A9312B243460E92079AE4
:101DE00091453DD25A1C5B07D2B20C9207D1039B9E
:101DF000039901330D9A9BB212F801A003931AF0D4
:101E0000800F10D0012E2268BDF8141019D1012DB9
:101E100017D1089B2046D2F818B019440E9A029B9D
:101E2000494409B2D8474FEA4A0A09F101090C9B13
:101E30005FFA8AFA5FFA89F9D1E7002304930693DF
:101E4000AFE7069B20464B4403FB0611029B09B2F9
:101E5000CDE900533346D2F81CB00A9AD847E2E7DE
:101E6000079B01379844FFB25FFA88F8A6E711B0E4
:101E7000BDE8F08FAEDB0708026A0B46F0B50446FA
:101E800085B0002A34D10A2908D10282438A427ED1
:101E900003EBC2036382012005B0F0BD0D29FAD027
:101EA000E17E007E657E71B1B4F91060062111FB00
:101EB0000061B4F90C60B142C1BFB4F912102282C2
:101EC00001EBC5026282B4F91220B4F91010CDE919
:101ED0000205E08A0190A08A00902046FFF776FE76
:101EE000237E228A03EB430302EB43032382D2E7E0
:101EF0000A2907D10023417E0382137B428A01FB1A
:101F00000323C7E70D29C6D0157AA942C3D3917A16
:101F10009942C0D35D1B5168EDB201EBC505AF78A6
:101F20002FB3E97819B3E17E007E667E91B195F911
:101F300005103944B4F9107000FB0171B4F90C704C
:101F4000B94207DD0027B4F912102782127B02FB89
:101F500006126282B4F91220B4F91010CDE902061B
:101F6000E08A0190A08A00902046FFF72FFE297991
:101F7000237E228A01FB0323B8E7002908BF012141
:101F8000002A08BF01220176427670470A46FFF711
:101F9000F4BF0368C9B21B68184749000023C16138
:101FA000C0F82C327047036801211B6B184710B42E
:101FB00003689C6B0123A4465DF8044B6047D0F88E
:101FC0002C32B3F5807F1FBF5A1CC0F82C22C018DA
:101FD00080F82C1114BF012000207047D0F8280190
:101FE00070477047C0F830127047C0F8341270471D
:101FF000D0F82831A3B1D0F828318BB1D0F82431F2
:10200000D0F824210344013293F82030D2B2C0F832
:102010002421D0F82821013AC0F828211846704719
:102020004FF0FF307047D0F828312BB1D0F8243171
:10203000184490F8200070474FF0FF30704738B5D3
:10204000036804465B6A9847FC201EF05BFDB4F908
:102050001A20B4F91810054619F07AFF656138BDE9
:10206000FC2128461EF082FD30F028FE38B5D0F85D
:102070002C321446054600F596701A441844B2F501
:10208000807F88BFC3F58074224634F04BFDD5F8BD
:102090002C3220462344C5F82C3238BD38B50446CE
:1020A00040690D4608B119F048FE206920B1294663
:1020B000BDE8384019F0A4BF38BD10B504464069EA
:1020C00020B10368DB6898470023636123699BB1F3
:1020D000D4F838021FF072F9D4F838021FF0C0F9B2
:1020E000D4F8380210B103685B6898479C212069D6
:1020F0001EF03CFD0023236110BD1FB50246D0F841
:102100002C3281F001014069D46900913BB901236F
:1021100003AA214619F045FEC0B204B010BD02F575
:102120009672214619F01CFE002814BF02200020E0
:10213000F3E770B5C2B083F001030446154602AE62
:102140000093490013464069324619F02AFEC8B987
:10215000A84218D0D4F82831B3F5807F10D0D4F835
:102160002031325C234483F82020D4F8203101331D
:10217000DBB2C4F82031D4F828310133C4F8283157
:102180000130E5E70025284642B070BD30B5044671
:10219000BDB00025206919F03CFF0328FAD8DFE81C
:1021A00000F04A021212D4F8343203B19847D4F83E
:1021B0002C22002AEED004F59671206919F02DFF2B
:1021C000C4F82C52E6E7C4F82051F022C4F8245198
:1021D0006946C4F82851206919F01DFF0022824287
:1021E0001DDAD4F82831B3F5807F18D0D4F828311F
:1021F000B3F5807F11D0D4F820311DF802102344AC
:1022000083F82010D4F820310133DBB2C4F8203138
:10221000D4F828310133C4F828310132DFE7D4F88B
:102220002831002BB6DDD4F83032002BB2D0D4F8F0
:1022300028019847AEE703F0DFFAABE738B5002591
:102240004FF47A7304460183428329464FF4807227
:10225000C0E901530A4BC0E904550360203034F053
:102260005FFDC4F82051C4F82C522046C4F8245114
:10227000C4F83052C4F82851C4F8345238BD00BFF5
:1022800028E1070810B4D0E9003409686210E407B7
:102290005DF8044B01EB020044BF8A58D35818473D
:1022A0000146043008B5FFF7EDFF08BD034A0346B9
:1022B000C26007C983E80700704700BF08E107084C
:1022C00010B586B004460391684606A980E80C0064
:1022D00001E90C00204603A9FFF7E8FF204606B0FD
:1022E00010BD37B56C46054684E80C0094E80C0038
:1022F000FFF7E6FF284603B030BD00002DE9F041AE
:102300000368054688B00E465B6A98479C201EF01D
:10231000F9FBB5F91A20B5F91810044619F056FE64
:10232000710020462C6119F06DFEBC201EF0EAFB06
:1023300004460646234B04F1400746F8043B30466A
:10234000FEF79AFC002138461EF000FF04F1540805
:1023500040461EF09BFE1C4B4FF4006218212046A5
:10236000009300231EF0B8FF184B294604A8C5F8B7
:10237000384202930023039302AB0CCBFFF7B1FF6B
:1023800004A920461EF0B4FF10E040461EF0BCFE3B
:1023900038461EF01AFF3046FEF775FCBC21204679
:1023A0001EF0E4FB30F08AFCF2E7F4E704A8FEF745
:1023B0006AFC08B0BDE8F0819C21F0E704A8FEF7B4
:1023C00062FCEFE70C15080814E107088D210408EA
:1023D00008B5FFF765FF08BD08B5FFF7F9FF08BDB1
:1023E00010B5142003F0CCF90446152003F0C8F909
:1023F000214602460B48FFF721FF4FF48B727C21E8
:102400000948FFF71BFF092003F0BAF9044608202A
:1024100003F0B6F9214602460448BDE81040FFF734
:102420000DBF00BFA0390024DC3B0024183E00246F
:1024300010B5C36886B001228DF80F100DF10F01A1
:10244000186803680092DC680DF11703A0479DF837
:10245000170006B010BDF8B5427A044603680E4670
:10246000CFB29B680D0A62B939469847236860F37A
:10247000070629469B682046984760F30F26B0B2AE
:10248000F8BD29469847236860F30F2639469B68B4
:102490002046984760F30706F1E7C36813B518684C
:1024A00003680092DC680B46A04702B010BD70477D
:1024B00070477047C36810B5044653B1186840B1FF
:1024C00003685B6898470421E0681EF04FFB002317
:1024D000E36010BD10B5044618211EF047FB2046EE
:1024E00010BD436873B599426D4604460E4685E8B3
:1024F000060004D1BDF8042003899A420FD0E36896
:1025000008219DF8042018681AF07FF8E368314626
:1025100018681AF098F80098AB886060238102B0C0
:1025200070BD73B5C568044625B904201EF0EAFAEB
:10253000E0600560E3681B6883B94FF0FF367420E4
:102540001EF0E0FAB4F91430B4F910200546B4F9DD
:10255000121000961AF05AF9E3681D6002B070BDBF
:10256000742128461EF002FB30F0A8FB2DE9F0474D
:102570005920002403F004F906465A20012703F0ED
:10258000FFF805465B20DFF8748003F0F9F8174B7D
:102590001E825D82164E174D5C6032461C722946C3
:1025A0005F7298821846C3F80080DC601EF052F813
:1025B0000C2003F0E5F882460B2003F0E1F8814699
:1025C0000D2003F0DDF80C4B324629461C725F7279
:1025D000DC60A3F810A0A3F8129098821846C3E913
:1025E0000084BDE8F0471EF035B800BF5440002419
:1025F00000000024B32404086C40002480E1070894
:1026000038B5124D0C461248296934F0E9FB2B69A4
:1026100063B9104834F046FC00F022F890B10E483F
:1026200034F040FC4FF0807024F0A4FC5CB1C4F1A5
:10263000C1450A48294634F0D3FB2046294600F01C
:102640007BF9012038BD0120FCE700BF404100526A
:102650004BE2070868E2070882E207089AE20708E7
:102660002DE9F04FCBB04FF0807300244FF080097C
:102670001AAD02261A934FF0040B64232846CDF8B6
:1026800080900DF594782B964FF0030A2294012741
:102690001F962194CDE91BB3CDE91D6628F01CFCE3
:1026A000874B8848D3F8D42042F48052C3F8D42012
:1026B000D3F8D42002F480520292029AD3F8D420A4
:1026C00042F00102C3F8D420D3F8D42002F0010272
:1026D0000392039AD3F8E02042F00802C3F8E02006
:1026E000D3F8E02002F008020492049AD3F8E02024
:1026F00042F01002C3F8E020D3F8E02002F010020C
:102700000592059AD3F8E02042F02002C3F8E020B9
:10271000D3F8E02002F020020692069AD3F8E020D7
:1027200042F04002C3F8E020D3F8E02002F040027B
:102730000792079AD3F8E02042EA0902C3F8E020A2
:10274000D3F8E0300F9603EA09030893089B0C23A3
:1027500012934CF2037348F8F03D4146CDE9107AEC
:1027600025F0E6F94FF68373414657480E9325F05E
:10277000DFF94FF63F03414654480E9325F0D8F950
:1027800048F23713414652480E9325F0D1F92C23D5
:1027900041465048DFF848810E9325F0C9F94FF0C3
:1027A00080424FF0805340F202214046C8F8289002
:1027B000CDF89880C8F84050C8E9012340F60803D6
:1027C000C8E905132023C8E907394FF00073C8F89A
:1027D0002430414BC8E90394C8F800304FF0100989
:1027E000C8E90B44C8E90D4426F023FD404626F015
:1027F000B1FC22460F217A2024F02AFC7A2024F012
:1028000059FC364B05224FF480581A93072313A91D
:1028100028461396CDF874B02494CDF88C8021947A
:10282000CDE91432CDE916364023CDE91E934FF49D
:10283000807320934FF40063CDE918AACDE91B44BF
:10284000229329F059FB002838D142460AA9099061
:102850000190CDE90C702846CDE90A7929F074FB86
:10286000642024F055FB019B42460AA928460D939B
:102870000C97CDE90A6929F067FB0822019B0AA998
:102880000C92284642460D93CDE90AA929F05CFB3B
:102890004FF4087342460AA909932846099B0C97EE
:1028A0000D93CDE90AB929F04FFB40F206612846A5
:1028B00029F069FB38464BB0BDE8F08F2046FAE7B7
:1028C00000440258000C025800100258001402582C
:1028D00000180258001C025880000052404100526B
:1028E0008840002430B538B1033020F0030111488E
:1028F0000368834201D1002030BD9A681D688A4276
:102900000CD3521A03F10C002B2A09D8D3E9001278
:102910004A6011600022C3E90022EDE72B46E8E798
:1029200044180C3AA26099606C60455063601C606A
:10293000ECE700BFF0010024C31C0C39054A23F06A
:1029400003030144C91A996011684B60C3E900127E
:1029500013607047F0010024D0F8843023B11A6866
:1029600052F8840C18447047D0F890000028FAD030
:10297000036853F8843CF5E70239012907D8044B72
:1029800093F88C20032A02D1052283F88C2070470B
:10299000F44000240C30704708B5FFF7FBFF00231C
:1029A000036008BDF8B505460E4600242A27D5F871
:1029B000940007FB040017F0ECFE2022314635F0AE
:1029C0001BF818B9012085F89840F8BD0134402C57
:1029D000EDD10020F9E7D0F888007047F8B505463A
:1029E000D0F888000E4608B133F052FD212033F0B4
:1029F00047FD0446C5F88800B8B13346024606F1E3
:102A000020071868083353F8041C1546BB4203C559
:102A10002A46F6D11B7830462B7034F051FF20281F
:102A200002D9002384F820300120F8BDF8B506460D
:102A3000D0F8940008B133F02BFD4FF428601EF05D
:102A400079F80446054600F52867284617F080FE09
:102A50002A35AF42F9D1D6F890004022C6F894400A
:102A600021460368D3F88C30984740B2F8BD204621
:102A70001EF0DDF830F022F9D0F8900008B50368B8
:102A8000D3F88430984708BD90F88C007047000058
:102A900008B5074800F082FE0028FAD0054904482E
:102AA00002F07EFC0449024802F07AFCFEE700BF17
:102AB000B8460024FAE2070837E3070808B50548D6
:102AC00000F06CFE0028FAD00349024802F068FCCE
:102AD000FEE700BFB8460024A6E307082DE9F04151
:102AE0008CB00D4604460146684602F010FD15B153
:102AF000FFF7CEFF4CE020461EF04CF8044628B10C
:102B00002F4D304F20461DF071FD01E0FFF7D6FF3D
:102B1000064650B3294606A802F0F9FC694606A805
:102B200002F072FD294602F07BFD8046314609A87D
:102B300002F0EDFC09A9404602F066FD014603A83B
:102B400002F025FD09A802F097FC06A802F094FC0B
:102B5000394603A802F071FD18B120461EF050F866
:102B600020E003A802F088FCCCE7174800F016FE2E
:102B700018B920461EF044F8C8E71449124802F07C
:102B80000FFCF6E709A802F077FC06A802F074FC37
:102B9000684602F071FC30F091F8F6E703A802F005
:102BA0006BFCF5E70A4B012203A81A7002F064FCE3
:102BB000684602F061FC00200CB0BDE8F08100BF67
:102BC0005FD90708D8E20708B8460024EAE20708F8
:102BD0009041002410B50446006808B11EF027F8A3
:102BE000204610BD0B4B10B5044640F8643BFFF780
:102BF000F1FF04F14C00FFF7EDFF04F13400FFF7A3
:102C0000E9FF04F11C00FFF7E5FF201DFFF7E2FFDD
:102C1000204610BDC8E207082DE9F0410022054614
:102C20001C4B0446114645F8043B284617F089FA28
:102C300004F11C0600223046114617F082FA04F116
:102C4000340700223846114617F07BFA04F14C088D
:102C500000224046114617F074FA002204F1640085
:102C6000114617F06EFA10E04046FFF7B3FF384602
:102C7000FFF7B0FF3046FFF7ADFF2846FFF7AAFF8A
:102C800030F01CF8F3E7F5E7F7E700232046E367A9
:102C9000BDE8F081C8E2070810B50446FDF7A0FBC7
:102CA000204610BD044BC36003460A6843F8042B5A
:102CB000002242605A607047CCE2070813B5044610
:102CC000019121B9FFF768FE204602B010BD01A9AD
:102CD000FFF7E8FFF8E700002DE9F0410446D0F8DF
:102CE000900086B00D469046E8B10368264953F837
:102CF000843CC718C35802A85E6DFFF7DFFF02A926
:102D00003846B04702A8FFF7C7FF2046FFF78EFE00
:102D100029462046FFF746FE40B9042384F88C304C
:102D200094F88C00C0B206B0BDE8F081D4F8906091
:102D30002A2294F898003368D3F88870D4F8943035
:102D400000FB023017F026FD00234246294600937F
:102D500003463046B8470D4B984205D1D4F8900051
:102D60000368DB6C9847D8E70028D6D1294620466F
:102D7000FFF734FE0028D0D00323CFE702A8FFF7E7
:102D80008BFF2FF09BFF00BF7929040839F4FFFF68
:102D900010B40C880368116820465DF8044B18478E
:102DA00007B500926A46ADF806100DF10601FFF76F
:102DB000EFFF03B05DF804FB38B50B4C16F041FF94
:102DC00005462046FFF728FF084B2046084A2360A7
:102DD0000023084984F88C30C4E92133C4E9245322
:102DE000BDE838401DF036BCF440002400E407087C
:102DF00000000024E52B040890F82001704713B56B
:102E000002AB026803F8011D194654680122A0476D
:102E100002B010BDD0F81C0170477047D0F81C31CB
:102E200023B1D0F818311844007D70474FF0FF30BF
:102E3000704738B50446D0F854011EF02FF92368C6
:102E400020461B69984738B94FF0FF35D4F8540134
:102E50001EF040F9284638BDD4F81C319BB1D4F897
:102E6000183123441D7DD4F818310133DBB2C4F886
:102E70001831D4F81C31013BC4F81C31D4F854018A
:102E80001EF028F9E6E74FF0FF35F7E70121D0F80B
:102E900050011EF099B838B50446D0F8540108B175
:102EA0001EF0FCF8206950B194F821313BB994F838
:102EB00022210368BAB35B6898470023236101238A
:102EC000D4F8540184F8233108B11EF003F9D4F882
:102ED0004C0150B11EF094FAD4F84C0110B10368C3
:102EE0005B6898470023C4F84C31D4F850514DB179
:102EF00028461EF06FF8142128461DF037FE0023E7
:102F0000C4F85031D4F854514DB128461EF0FCF8A5
:102F1000242128461DF02AFE0023C4F85431002342
:102F200084F8203138BD9B689847C6E72DE9F04109
:102F30000446C0B04FF001082E4F2E4D01236422ED
:102F4000FF21D4F850011EF060F8D4F81C31B3F51D
:102F5000807F06D102F050FCBD42F6D0002DF4DC9B
:102F6000EBE7D4F854011EF099F8206988B194F881
:102F7000233113B194F821315BB9D4F81C2169468F
:102F80000368C2F580725B699847061E07DABE4285
:102F900006D0002384F8203140B0BDE8F08107D18D
:102FA00002F02AFCD4F854011EF094F83546D3E719
:102FB0000025D4F81C31B3F5807F10D0D4F814313B
:102FC0001DF8052023441A75D4F814310133DBB2FF
:102FD000C4F81431D4F81C310133C4F81C31013564
:102FE000AE42E6D1D4F854011EF074F884F8208182
:102FF000ABE700BF47F4FFFF70B50446D0F85401BB
:103000000E4615461EF04AF8236820461B6998476D
:1030100030B9D4F854011EF05DF84FF0FF3070BDA8
:1030200085423146A8BF05467019814218D0D4F8B0
:103030001C3193B1D4F8183123441A7DD4F81831D7
:103040000133DBB2C4F81831D4F81C31013BC4F8A9
:103050001C31134601F8013BE7E74FF0FF33F9E776
:10306000D4F854011EF036F82846D8E70C307047E3
:1030700038B500250446112240F8045B294633F098
:103080004FFEE582204638BD10B504460021FDF70D
:1030900008FD204610BD000038B500254FF47A73B6
:1030A00004464FF4807229460561C0E90153134B71
:1030B000143040F8143C33F033FEC4F8145184F853
:1030C000205104F59270C4F8185184F82151C4F8C5
:1030D0001C5184F8225184F82351FFF7D5FF04F5E1
:1030E0009A70FFF7C5FFC4F84C51C4F85051204600
:1030F000C4F85451C4F8585138BD00BF18E407084B
:1031000010B4D0E9003409686210E4075DF8044B9C
:1031100001EB020044BF8A58D358184701460430D7
:1031200008B5FFF7EDFF08BD034A0346C26007C9B3
:1031300083E80700704700BF04E4070810B586B0B5
:1031400004460391684606A980E80C0001E90C00DA
:10315000204603A9FFF7E8FF204606B010BD37B5AB
:103160006C46054684E80C0094E80C00FFF7E6FF87
:10317000284603B030BD00002DE9F0470B680D462E
:103180008AB00446D0F8581128461B6B98472B6824
:1031900000212846DB6A98472B6804F59A71284677
:1031A0009B6C9847D4F850313BB914201DF0AAFC11
:1031B00006461DF0FFFEC4F85061D4F854313BB907
:1031C00024201DF09FFC06461DF060FFC4F85461EA
:1031D000D4F854011DF062FFD4F84C71002F42D195
:1031E000BC201DF08FFC06468046314B06F140099D
:1031F00048F8043B4046FDF73FFD394648461DF080
:10320000A5FF06F1540A50461DF040FF4FF48053CD
:10321000182216213046CDE900771EF025F8254BFF
:10322000214606A8C4F84C61CDE9023702AB0CCBAD
:10323000FFF795FF06A930461EF05AF810E05046F9
:103240001DF062FF48461DF0C0FF4046FDF71BFD24
:10325000BC2130461DF08AFC2FF030FDF2E7F4E788
:1032600006A8FDF710FDD4F854011DF033FF2B68BC
:10327000214606A85E6B104B04930023059304AB14
:103280000CCBFFF76CFF06A92846B04706A8FDF750
:10329000FAFC012384F820310AB0BDE8F08714213C
:1032A000D7E72421D5E706A8FDF7EDFCD4E7FAE738
:1032B0000C1508082D2F04088D2E040873B504463C
:1032C00000690E4670B1D4F84C315BB1036801223D
:1032D0000DF107015B699847002803DA236820464F
:1032E0009B6A984723694BB990201DF00BFC05465B
:1032F00017F016F90123256184F8223125691DB9DB
:103300000025284602B070BD23682046DB6B984735
:1033100003685B6F98470146284616F055FB054643
:103320000028EDD1206931460368DB689847094BD6
:10333000984203D010B184F82051E2E72169204679
:10334000FFF71AFF0125F6E7902128461DF00EFC35
:103350002FF0B4FC39F4FFFFF0B5124B8DB00646E8
:103360000D4600930B1D174601AC0FCB84E80F00F0
:103370002B7D694606A83A468DF8143000F091F886
:1033800006A93046FFF79AFF04E006A8FFF722FCE3
:103390002FF094FC044606A8FFF71CFC20460DB055
:1033A000F0BD00BFD8E8070870B58EB004461546DA
:1033B0000E461822002102A833F0B2FC02A8FFF743
:1033C00057FE2368ADF81E502046DB6B9847026815
:1033D000002331460093156802AAA84702A908A84D
:1033E00016F02BFE08A92046FFF768FF08E008A8A2
:1033F000FFF7F0FB02A8FFF7EDFB2FF05FFCF9E70A
:10340000044608A8FFF7E6FB02A8FFF7E3FB204607
:103410000EB070BDF8B5044600690E46154600B3FF
:1034200003680121104FDB6A9847206940F2DC51A4
:1034300003681B6B984720692A46314603681B695D
:103440009847854207D0B84205D123682046DB6AF9
:1034500098470028EFD121692046FFF78DFE2846C6
:10346000F8BD0546FBE700BF47F4FFFF08B5FFF7CF
:1034700055FE08BD08B5FFF7F9FF08BDCB68C3606E
:103480000BB15B681847704737B54D790446CB7967
:103490008A79097A0091294601F0B4FE204603B0EA
:1034A00030BDF0B587B00C460546174601261122FF
:1034B000002101A833F034FC002120468DF804607F
:1034C00001F007FF0378314620468DF8053001F002
:1034D00000FF0378022120468DF8063001F0F9FE46
:1034E0000378032120468DF8073001F0F2FE0378BF
:1034F0003A4601A928468DF8083016F087FD28467F
:1035000007B0F0BD30B58DB00D460446182200213D
:10351000684633F005FC2B6828461B68984703680B
:103520006946DB6A9847694606A816F086FD06A933
:103530002046FFF7A9FF08E006A8FFF74BFB684607
:10354000FFF748FB2FF0BAFBF9E706A8FFF742FBAD
:103550006846FFF73FFB20460DB030BD064B082202
:103560001A600922054B1A600A22054B1A600B22C9
:10357000044B1A60704700BF9C410024A041002406
:10358000944100249841002430B5A1F11004002595
:1035900000F00F02CD7302390009D3B2092ACCBF63
:1035A000373330330B748C42F2D130BD6720704713
:1035B00008B5084A0121084B57201A6002F03EF96D
:1035C0000121572002F084F9044B43F2D2021A6021
:1035D00008BD00BF00400058A44100240040005234
:1035E00010B5044623F0ACFC2146FFF7CDFF23F0D5
:1035F000ADFC04F11001FFF7C7FF23F0ADFC04F1AF
:103600002001FFF7C1FF302010BD000008B54DF6C6
:1036100059720021074828F04EFCBFF34F8F06492E
:10362000064BCA6802F4E0621343CB60BFF34F8FCE
:1036300000BFFDE7A441002400ED00E00400FA050E
:1036400003680868184708B5011DFFF7F9FF08BDB2
:10365000044A0346C260002203C99A6083E803005B
:10366000704700BF58E4070813B50446CDE90012BF
:103670006946FFF7EDFF204602B010BD10B50446C5
:10368000FFF7F2FF204610BD08B5FFF7DCFF08BDCD
:1036900008B5FFF7F9FF08BD70B590F83831054659
:1036A0001446F3B90368DB69984704F4706304F0C7
:1036B0000F02B3F5407F04F0F0030CBF072108218F
:1036C000302B0CBF02230123012A08D0901E424256
:1036D0004241A869BDE87040006819F0CDB90222E6
:1036E000F7E770BD10B590F8383104462BB9A369DF
:1036F000186819F003FA0028F9D010BD38B590F811
:1037000038510446A5B983695BB1186848B10368AC
:10371000DB689847A36904211D60A0691DF026FAA3
:10372000A5610023C4F82831C4F82C31C4F8303125
:1037300038BD13B590F8383104466BBBA3691868DF
:1037400019F0B2F940B31CF0C3FAA36901220DF1DC
:103750000701186803685B699847D4F83031B3F5FE
:10376000807F16D0D4F83031B3F5807F11D0D4F8F3
:1037700028319DF80720234483F82820D4F82831E5
:103780000133DBB2C4F82831D4F830310133C4F846
:1037900030311CF0B3FAD1E702B010BD08B590F893
:1037A00038313BB1012002F017F80648BDE8084067
:1037B00001F05BBA82691AB11368003318BF0123A4
:1037C000184608BD884D002470B504460D4601F02A
:1037D0004CFA30B12368294620461B6CBDE8704086
:1037E000184770BDA0F5A070EEE7000013B590F883
:1037F000383104468DF807102BB1C9B20B48FFF7DA
:10380000E3FF02B010BDA369186819F077F900282A
:10381000F9D0A36901220DF10701186803681B693B
:103820009847013018BF0120EBE700BF884D002406
:103830002DE9F04107468846164601F016FA70B1A8
:103840000024A6420CD9351B08EB04013846402D54
:1038500028BF40252A462C4400F05CFFF1E70446CF
:103860002046BDE8F081A0F5A070E1E770B590F8C2
:10387000383105460E4614462BB10F48FFF7D8FFE6
:103880000446204670BDAB69186819F037F9002866
:10389000F9D0AB6901211868D0F8883088301B6BEB
:1038A0009847AB6922463146186803681B699847F8
:1038B000013008BF0024E4E7884D002430B50446F9
:1038C000C3B001F0BFF90546D4F85832C3F5807390
:1038D000984203DDD4F85852C5F580752A4601ABED
:1038E00002A9204601F00CF8019902AB00226D1AE2
:1038F0001D44D4F85832B3F5807F19D08A4217D0CE
:10390000D4F85832B3F5807F10D0D4F85032A85C88
:10391000234483F85001D4F850320133DBB2C4F8A9
:103920005032D4F858320133C4F858320132E0E74B
:1039300043B030BD38B5044600F0D2FB2046FFF757
:10394000BDFFD4F85852204600F0D2FB284638BDBF
:10395000A0F5A070EEE7000010B590F838310446ED
:103960002BB10648FFF7E6FF0446204610BD1CF0C9
:10397000AFF9D4F830411CF0C1F9F6E7884D0024C6
:1039800038B5044600F0ACFB2046FFF797FFD4F8AB
:1039900058324BB1D4F85432234493F85051204656
:1039A00000F0A6FB284638BD4FF0FF35F7E7A0F53D
:1039B000A070E5E710B590F8383104462BB10B48FC
:1039C000FFF7DEFF0446204610BD1CF081F9D4F855
:1039D00030313BB1D4F82C01044494F828401CF059
:1039E0008DF9F0E74FF0FF34F9E700BF884D002470
:1039F00038B5044600F074FB2046FFF75FFFD4F8AB
:103A00005832A3B1D4F85432234493F85051D4F827
:103A100054320133DBB2C4F85432D4F85832013B8B
:103A2000C4F85832204600F063FB284638BD4FF0FA
:103A3000FF35F7E7A0F5A070DAE7000010B590F8C1
:103A4000383104462BB11148FFF7D2FF0446204617
:103A500010BD1CF03DF9D4F830319BB1D4F82C31B5
:103A6000234493F82800D4F82C310133DBB2C4F896
:103A70002C31D4F83031013BC4F8303104461CF00D
:103A80003DF9E4E74FF0FF34F9E700BF884D00242B
:103A90002DE9F84300251F464FF47A730446894602
:103AA000904629464FF48072C561089EC0E90153D3
:103AB000184B03602023C0E90535283033F030F976
:103AC000C4F8285184F838515FFA89F0C4F82C51B1
:103AD000C4F8305101F054FE20845FFA88F001F000
:103AE0004FFEAF4260840CDBF8B201F049FEA084C7
:103AF000002E0ADBF0B201F043FEE0842046BDE870
:103B0000F8834FF6FF73A384F2E74FF6FF73E38465
:103B1000F4E700BF78E4070810B4D0E9003409687E
:103B20006210E4075DF8044B01EB020044BF8A58C1
:103B3000D35818470146043008B5FFF7EDFF08BD1C
:103B4000034A0346C26007C983E80700704700BF05
:103B500064E4070810B586B004460391684606A9D8
:103B600080E80C0001E90C00204603A9FFF7E8FFFC
:103B7000204606B010BD37B56C46054684E80C00FB
:103B800094E80C00FFF7E6FF284603B030BD0000C4
:103B900070B590F8383186B004460E46002B3BD104
:103BA000856925B904201CF0ADFFA0610560A369FB
:103BB000186850BB8C201CF0A5FF3346B4F92220B6
:103BC0000546B4F9201019F077FAA3691D60B4F91D
:103BD0002420531C06D0A0690321B4F926300068C4
:103BE00019F078FAA3691D68B5B1114B002621467A
:103BF00002A800936B4601960CCBFFF7BCFF324640
:103C000002A9284618F0E0FF03E0314618F021FF32
:103C1000DDE702A8FDF737F806B070BD8C21284615
:103C20001CF0A4FF2FF04AF802A8FDF72CF8F9E7E2
:103C30003337040808B5FFF77DFF08BD08B5FFF767
:103C4000F9FF08BD37B54FF47A731C4C00254FF4CB
:103C5000807204F128002946E561C4E90153184B3C
:103C600023602023C4E9053533F05AF80121C4F854
:103C700028512A46C4F82C5184F83811C4F8305120
:103C80004FF0FF340F4823460094FFF701FF23460F
:103C90000094132212210C48FFF7FAFE23460094E9
:103CA000112210210948FFF7F3FE23460F220E21AF
:103CB00000940748FFF7ECFE03B030BDB84600247F
:103CC00078E40708C8410024044300244044002449
:103CD0007C450024002070477047704710B5D0F82D
:103CE0008C452CB1236820465B689847A468F8E7A8
:103CF00010BD38B50D46D0F88C4534B12368204648
:103D000029469B689847A468F7E738BD0048704784
:103D100034E50708054B10B5044603601AF07EFC35
:103D200020461AF021FD204610BD00BFB4E407086C
:103D300010B50446FFF7EEFF4FF4B26120461CF0C9
:103D400015FF204610BDF7B5002305460E46D0F8F6
:103D50008C45A4B1236831460DF103022046DF688B
:103D600001ABB8479DF803100346042905D0019A1A
:103D7000284619F0FFFE03B0F0BDA468E9E7019AF8
:103D80009DF80310F4E770B505460E4622B10021F8
:103D9000BDE8704019F0F0BCD0F88C455CB12368E8
:103DA0000022314620461B69984710B10121284660
:103DB000EEE7A468F2E72146F9E770B50E4605463E
:103DC000D0F88C4500213CB12368314620465B6920
:103DD0009847A4680146F6E72846BDE8704019F008
:103DE000C5BDF8B505460E461746D0F88C453CB122
:103DF000236820463A4631469B699847A468F6E70F
:103E000028460121BDE8F84019F00EBE70B500212A
:103E100086B004461AF05FF800234FF48975A18834
:103E2000EF26ADF806302389ADF8045002258DF851
:103E300010301B0AE2888DF8113040F201238DF812
:103E40000750ADF8123040F203138DF809500125E8
:103E5000ADF8143004F10A038DF8086005AE8DF852
:103E60000A501C468DF80C1001AD090A8DF80E2081
:103E7000120A8DF80B008DF80D108DF80F202A46D0
:103E8000083303CAB24243F8080C43F8041C154631
:103E9000F5D1128820461A8006B070BDF8B500240E
:103EA00006460D462746304633F00AFDA04207D9A4
:103EB000335D05F8143005EB440301345F70F2E71D
:103EC000400000F0FE00F8BD38B50446D0F88C552F
:103ED00035B12B6828461B6A984710B9AD68F7E7DB
:103EE000284640F2023304F24A51A4F84835FFF75D
:103EF000D5FF94F84835184484F8480504F5A960BE
:103F000038BD000040F2023300F20A5110B50446F9
:103F1000A0F808350548FFF7C1FF94F808351844A4
:103F200084F8080504F5A16010BD00BFA4E40708EB
:103F300040F2023310B50446A0F8C83400F2CA407B
:103F4000FFF74EFB94F8C834184484F8C80404F50D
:103F5000996010BD2DE9FF4100231D4A044600F57C
:103F60004E788DF80A30092590F888350192FA22AA
:103F70008DF8083001238DF80C208DF80930C0230E
:103F80008DF80B3001AB03CBC4F83803C8F804102C
:103F900088F80820D4F88C658EB13368002130464B
:103FA0001B689847478805F54E7300F10901093FE2
:103FB000E0183A463D4432F0B5FDB668ECE784F8C7
:103FC0003A5340462D1284F83B5304B0BDE8F081CB
:103FD0000902FFFF73B504460D4616462BF0F0F9B3
:103FE0004FF4807301462A462046009333461AF068
:103FF00079FB024B2046236002B070BDB4E4070891
:1040000010B5D0F88C350446A3B9C0F88C1594F8D7
:10401000883508464A790B7194F88835134484F83A
:1040200088350B685B6A98472389184420810120F2
:1040300010BD13469A68002AFBD19960E7E71FB5C7
:10404000044619F043FF0146684619F00BF9402178
:10405000684619F075F9D4F88C4534B1236869467F
:104060002046DB699847A468F7E7684619F001F92C
:1040700004B010BD684619F0FCF82EF01FFE10B514
:104080000446FFF7DCFF2046BDE8104019F09EBE55
:104090000F4808B50378BFF35B8FDB0711D41CF022
:1040A000F1FA70B140F2662242F241310948FFF75D
:1040B00091FF07481CF008FB074A084905481CF017
:1040C000C9FA044808BD02481CF004FD2EF0F6FDB4
:1040D000F4470024F847002400000024153D04089C
:1040E00010B5FFF7D5FF0368BDE810405B6F1847B8
:1040F00010B5FFF7CDFF0368BDE810409B6F184770
:1041000010B5FFF7C5FF0368BDE81040DB6F184727
:1041100019F052BA19F014BA19F03EBA7047704744
:104120007047436A93F878007047D0F824017047CD
:10413000012070470048704798E607082DE9F04FC6
:1041400097B004460F464B22002103A832F0E8FD49
:10415000D4F824312679002B637B06F1010594F80D
:104160000EA014BF05200020EDB294F80C9001932E
:10417000002F40F0978040F2092301218DF825009F
:1041800042F20540ADF80C304FF481734FF0240C2F
:104190004FF0090EADF81030802304274B228DF824
:1041A000133032238DF821104FF010088DF81430A1
:1041B00008238DF824104FF0030B8DF815300B23D6
:1041C000ADF8260005208DF8163040F202238DF858
:1041D0002A101D34ADF8183002238DF82D108DF8FB
:1041E0002F1006218DF80E208DF817608DF81A30EB
:1041F0008DF81DE08DF81F608DF822308DF823308A
:104200008DF82B008DF82CC08DF831C08DF8323030
:104210008DF833108DF834008DF835C08DF81E7090
:104220008DF829808DF82EB08DF830708DF836100D
:1042300007218DF8376044F203068DF839108DF8A8
:10424000491044F202018DF83850ADF84C1040F29C
:1042500007518DF8425040F60225ADF850109DF8F8
:1042600004108DF8533040238DF83A008DF84A0041
:1042700020468DF8521003A98DF83BA0ADF83C60A4
:104280008DF83F808DF840E08DF84170ADF84450D6
:104290008DF84B908DF8543032F044FC204617B026
:1042A000BDE8F08F0020FAE738B50B4B0546044611
:1042B00045F8D03BFFF7ECFE1AF0B0F9284619F0AC
:1042C000D9F804F17C0019F0D5F804F1700019F068
:1042D000D1F8204638BD00BF58E6070810B504469F
:1042E000FFF7E2FF4FF4947120461CF03FFC20469C
:1042F00010BDFFF705BF0000034B10B50446036077
:1043000018F078FF204610BD7CE5070810B504467C
:10431000FFF7F2FF282120461CF028FC204610BDA4
:10432000034B10B50446036018F064FF204610BD2F
:104330004CE5070810B50446FFF7F2FF342120468C
:104340001CF014FC204610BD034B10B5044603605E
:1043500018F050FF204610BD64E5070810B504466C
:10436000FFF7F2FF382120461CF000FC204610BD6C
:1043700038B51C4B0D46044640221968C0F80F1092
:1043800099889B79A0F8131002214375284618F0EC
:10439000CDFF402220730221284618F0CCFF402296
:1043A00060730321284618F0C1FFA073284618F057
:1043B00061FF20B9AF220C490C481BF09DFB002384
:1043C00004F18502C4E9322304F1D90284F878307B
:1043D00084F8843084F8D830C4F81C21C4F8203123
:1043E00038BD00BF98E5070833E607083EE6070832
:1043F0002DE9F34104460E461546FFF781FEF2888B
:1044000023799A4237D1002D35D17778012F2ED1DB
:10441000F378202B27D13289072A24D104F10F0801
:1044200004F116054046294632F04AFBD0B1D4F8D3
:104430001630C4F80F30638B207CE17BA4F8133076
:1044400001EB0021E57C607C237F01EB00410095BE
:10445000A07C2568637501EB0061237D2046627DA9
:104460006D6BA8473D46F378212B08BF01252846F0
:1044700002B0BDE8F0810025F9E710B50446FFF76A
:104480003FFEFFF705FE217B19F06CFF04F1850369
:1044900004F17C00C4F8C8300023C4F8CC3084F8A0
:1044A000843018F09CFF94F884302BB923682046A0
:1044B000DB6BBDE81040184710BD000070B5044626
:1044C000FFF71EFED4F820512DB140F2DD120F4946
:1044D0000F481BF011FB04F1D903C4F81C31FFF79E
:1044E000D7FD617B19F09AFE84F8D850C4F82001FA
:1044F00004F1D00018F073FF94F8D8302BB923687A
:1045000020469B6BBDE87040184770BD33E6070836
:10451000A4E5070802232DE9F04143710023044676
:10452000054683609046144B04F17C0645F8703BC9
:10453000284618F047FF304618F044FF04F1D00732
:10454000384618F03FFFC4F82481FFF7A1FD21464B
:10455000FFF756FD0CE0384618F08CFF304618F097
:1045600089FF284618F086FF2EF0A8FBF6E7F8E74B
:104570002046BDE8F08100BF58E6070870B5044644
:104580000D46FFF7BDFD84F87850002D3ED194F81C
:10459000843033B1FFF77CFD217B19F0B7FC84F840
:1045A000845004F1850304F17C0600253046C4F8EC
:1045B000C830C4F8CC5018F012FF304618F008FF8D
:1045C00028B94FF4A272144914481BF095FA94F8D4
:1045D000D83033B1FFF75CFD217B19F097FC84F8EC
:1045E000D85004F1D90304F1D005C4F81C310023DC
:1045F0002846C4F8203118F0F2FE284618F0E8FEEC
:1046000020B94FF4A77204490548DEE704F17000B1
:10461000BDE8704018F0E3BE33E60708B2E50708CE
:10462000C3E5070810B50446FFF76AFD00212046E0
:10463000BDE81040FFF7A2BF38B50D460446FFF7AE
:104640005FFD042D05D020460021BDE83840FFF76E
:1046500095BF38BDF8B5164604460D461F46FFF710
:104660004FFD0423EA88337023799A4225D1697873
:10467000012922D1EA78212A08D0222A0BD0202A27
:104680004FF000001BD13070163401E00F34317050
:1046900007203C60F8BDAB88204613F0010308BF3B
:1046A0001946FFF76BFFAB8803F00103E366AB88A5
:1046B00003F00203A366022333700020EAE703231A
:1046C0003370E7E710B58AB00446FFF709FD684686
:1046D00018F080FD0D4B694604F1700000930994B9
:1046E00018F095FE2046FFF703FD094B00216846B0
:1046F0001A6818F035FD6846FFF7FEFD0AB010BDD8
:104700006846FFF7F9FD2EF0D9FA00BF7CE50708EF
:10471000A0E5070870B58EB004460E461546FFF7B3
:10472000DFFC01A818F056FD114B01A904F17C0033
:10473000019300230C958DF83430CDE90A4618F02A
:1047400066FE2046FFF7D4FC0A4B002101A81A6838
:1047500018F006FD04E001A8FFF7E2FD2EF0AEFA26
:104760009DF8344001A8FFF7DBFD20460EB070BD78
:104770004CE50708A0E5070810B50446FFF7C0FCA4
:1047800094F884307BB9D4F8CC3063B1FFF780FC67
:10479000D4F8CC3004F18502217B19F07FFD10B1F3
:1047A000012384F8843010BD2DE9F8431E460446E9
:1047B000894690469DF82070FFF792FC00233360F5
:1047C00094F87830E3B194F88430CBB9D4F8CC5075
:1047D000C5F14005454528BF4546B8F1000F05D055
:1047E0002A464946D4F8C80032F09CF9D4F8CC30B7
:1047F0002B44C4F8CC30356017B12046FFF7BCFF1E
:104800002046BDE8F843FFF773BCF0B50446406AA4
:1048100085B0012690F878502DB984F8305035468F
:10482000284605B0F0BD04AB0027D4E90A1243F8CE
:10483000047D0096FFF7B8FF0399E36AA26A5B1A4A
:104840000A44E362A26213B984F83060E8E7606A60
:104850003D46FFF791FFE3E72DE9F0431C4691B099
:10486000054689469046FFF73BFC002C4FF00006BA
:1048700002A806BF01AC01270027266018F0AAFC99
:10488000134B02A905F1D00002938DF83C708DF80E
:104890003D60CDE90B59CDE90D8418F0B8FD2846EF
:1048A000FFF726FC0B4B314602A81A6818F058FC9B
:1048B00004E002A8FFF748FD2EF000FA9DF83D4005
:1048C00002A8FFF741FD204611B0BDE8F08300BF0C
:1048D00064E50708A0E5070810B5D0F820310446C4
:1048E0006BB990F8D83053B9FFF7D2FB402304F1ED
:1048F000D902617B19F032FC012384F8D83010BD55
:1049000070B504461E4600230846336094F878309C
:10491000EBB194F8D830D3B9D4F82051D4F81C11A5
:10492000954228BF15462A4632F0FCF83560D4F887
:104930001C31D4F820212B44551BC4F81C31C4F879
:10494000205125B92046BDE87040FFF7C5BF70BDB6
:1049500037B50446406A90F878502DB984F8355040
:104960000125284603B030BD02AB002243F8042DD8
:10497000D4E90A12FFF7C4FF0199A26A0A44A262AD
:10498000226B13680B4413600199E36A5B1A94F875
:104990003410E36209B9126802B91BB9012384F823
:1049A0003530DEE7606A0025FFF796FFD9E710B5DE
:1049B0000446FCF761F9204610BD10B4D0E900347C
:1049C00009686210E4075DF8044B01EB020044BF84
:1049D0008A58D35818470146043008B5FFF7EDFF51
:1049E00008BD0000034A0346C26007C983E8070008
:1049F000704700BF8CE5070810B586B004460391E8
:104A0000684606A980E80C0001E90C00204603A9CD
:104A1000FFF7E8FF204606B010BD37B56C460546E7
:104A200084E80C0094E80C00FFF7E6FF284603B08A
:104A300030BD0000F0B58BB00546FFF761FB06AC5A
:104A4000FFF726FBAF7B064600212046FFF7AFFFAE
:104A50000094032340223946304619F0D1F920460C
:104A6000FCF711F9FFF714FB214B06462F7B02934D
:104A7000002329462046039302AB0CCBFFF7CDFF62
:104A80000094022340223946304619F0B9F92046F5
:104A9000FCF7F9F8FFF7FCFA164B06466F7B049318
:104AA000002329462046059304AB0CCBFFF7B5FF46
:104AB0000094022340223946304619F0A1F906E05D
:104AC0002046FCF7E0F82EF0F9F8F9E7F8E7204681
:104AD000FCF7D9F8FFF7DCFA4023D5F81C21697BF5
:104AE00019F03CFB012085F8D8000BB0F0BD00BFE9
:104AF0007B440408BD44040808B5FFF76CFF08BDFB
:104B000008B5FFF7F9FF08BD6FF0150070470029E1
:104B10000CBF6FF0180000207047012070476FF045
:104B2000150070476FF015007047112070477047EF
:104B30007047704703689B6C1847A0F5A070F9E7B1
:104B4000704770477047704710B50446012000F069
:104B500043FE94F8780010BDA0F5A070F4E70000C3
:104B600038B54FF0FF320123FF210B481CF04DFAFE
:104B70000A4D00F01FFE044695F878301BB1012065
:104B800000F02AFEF8E700F015FE001BC728F6D952
:104B9000BDE83840FEF73ABD40500024884D00245F
:104BA00007B502AB012243F8041D1946FFF7B2FD19
:104BB00018B1019803B05DF804FB4FF0FF30F9E73E
:104BC000A0F59470FFF7ECBF07B5002302A90122FE
:104BD00001F8013DFFF740FE20B19DF8070003B04A
:104BE0005DF804FB4FF0FF30F9E7A0F59470FFF794
:104BF000EBBF2DE9F8430446884617461E46089D3C
:104C0000FFF77EFAD4F87092B9F1000F04D02B466A
:104C1000324639464046C847C4F86082C4F86472D8
:104C2000C4F86862C4F86C52BDE8F883B0F5966FBA
:104C300003D1012101481CF0C7B97047405000243E
:104C40000068704738B50546FFF74AFA95F8D8303E
:104C50004BB9D5F82041402C28BF40242846FFF707
:104C600047FA204638BD0024F8E790F878007047EE
:104C7000114B03F1780270B503600446C0F8282197
:104C800000F51D7603F1D80200F52D75E833C0F864
:104C90002C21C0F84031AE4204D0103D2846FBF72D
:104CA000F2FFF8E704F594701AF0A2FB2046FFF734
:104CB000FBFA204670BD00BF68E70708A0F59470B6
:104CC000FFF7D6BFA0F59670FFF7D2BF10B5044628
:104CD000FFF7CEFF4FF42E7120461BF047FF204612
:104CE00010BDA0F59670FFF7F1BFA0F59470FFF727
:104CF000EDBF00002DE9F74304461E4688461546E1
:104D00002AF05EFBBDF82C3004F594770146019340
:104D10002A46BDF82830204600933346FFF7FAFBB9
:104D2000002138461AF03AFB4FF47A73002504F557
:104D30001D7904F5A870C4F848312946204B4E4629
:104D4000C4F8445103F178022360C4F8282103F128
:104D5000D802E833C4F82C214FF48072C4F84031F3
:104D600031F0DEFFC4F85052C4F85452C4F858521F
:104D700004F52D7530461036FBF77EFFB542F9D1AC
:104D80000023C4F8B432C4F87032B8F1000F13D065
:104D90002046FFF797FC0FE04D4504D0103D284614
:104DA000FBF771FFF8E738461AF022FB2046FFF7C1
:104DB0007BFA2DF083FFF9E7204603B0BDE8F083CE
:104DC00068E70708884238B5044606D00D46FBF769
:104DD00007FB20462946FEF751FB204638BD08B5A3
:104DE000FDF7D8FD0068003018BF012008BD0000A5
:104DF00010B50446FFF7F3FF28B940F20222064936
:104E000006481AF079FEE068FFF71AFF03462046CD
:104E1000BDE81040184700BF49E7070854E70708F6
:104E2000F8B506460025FFF76BF906F51D74D6F8B0
:104E3000B432AB420AD920462746FFF7D0FF1034E0
:104E400020B138460135FFF7D3FFF0E7F8BD000089
:104E5000044BC36003460A6843F8042B00224260F7
:104E60005A607047BCE6070813B50446019121B9A2
:104E7000FDF792FD204602B010BD01A9FFF7E8FF43
:104E8000F8E710B4D0E9003409686210E4075DF86F
:104E9000044B01EB020044BF8A58D358184701461F
:104EA000043008B5FFF7EDFF08BD0000034A0346D4
:104EB000C26007C983E80700704700BFB0E6070873
:104EC00010B586B004460391684606A980E80C0038
:104ED00001E90C00204603A9FFF7E8FF204606B0D1
:104EE00010BD37B56C46054684E80C0094E80C000C
:104EF000FFF7E6FF284603B030BD00002DE9F04182
:104F000088B00446FFF7ECF8384B2046C4F87032FE
:104F1000FFF7EEF8364B04A82146029300230393D3
:104F200002AB0CCBFFF7DDFF2046FFF7D9F8D4F832
:104F3000B402032803D92046FFF7DAF80AE0431C3D
:104F400004EB001004A9C4F8B43200F51D70FFF79B
:104F500039FFF0E704A8FBF796FEBC201BF0D2FD5A
:104F600005460646234B05F1400746F8043B30460C
:104F7000FBF782FE002138461CF0E8F805F15408E2
:104F800040461CF083F81C4B4FF4807218212846D1
:104F9000009300231CF0A0F9184904A8C4F85C523F
:104FA000FFF762FF04A928461CF0A2F910E0404672
:104FB0001CF0AAF838461CF008F93046FBF763FEEF
:104FC000BC2128461BF0D2FD2DF078FEF2E7F4E775
:104FD00004A8FBF758FE2046FEF770FC08B0BDE8B9
:104FE000F08104A8FBF74FFEEEE7FAE72D4C04082A
:104FF000BD3804080C150808C8E60708614B04080A
:10500000A0F5A070FFF77ABF0368184708B5FFF74F
:10501000FBFF08BD08B5FFF742FF08BD08B5FFF765
:10502000F9FF08BD37B50F4C0F4D20461BF0C2FFEE
:105030002A460E4920461BF00DFB42F212030122C4
:105040000B4CCDE9003200224FF4F85320461146B4
:10505000FFF750FE2A460749204603B0BDE830401E
:105060001BF0F8BA4050002400000024D50F0608B9
:10507000884D0024714C040808B530F06DF82DE916
:10508000F04F027D85B005460E46012A40F08E8025
:1050900000214FF0FF3B04460B465F4694F804C0E6
:1050A00048B2BCF1000F73D194F805C0BCF1000FF9
:1050B0006ED1B7F1FF3F17BF0133012338465BB212
:1050C000934201DD1A4683460131023408295DD13D
:1050D000002402EB0B03A1460293CB4502DC029BAA
:1050E0004B4558DC95F8058095F804A04FEA281741
:1050F00008F00F080AF00F035FEA2A1AFAB20192C9
:105100006FD05FFA8AF1BAF1090F30460393D4BF2A
:105110003031573100F02AF9039B0444092B304603
:10512000039394BF03F1300103F1570100F01EF91E
:105130000444BAF1000F02D1039B03B94FB1092F08
:10514000019F3046D4BF30375737F9B200F00EF91F
:105150000444B8F1090F304694BF08F1300108F15A
:10516000570100F003F9B9F1070F044404D03A21C4
:10517000304600F0FBF8044409F101090235B9F1A9
:10518000080FAAD1204605B0BDE8F08F074685E795
:105190004FF0FF3098E7CB45EED1BBF1000FE6D1E1
:1051A0003A21304600F0E2F80444E0E700F110074D
:1051B00000F11309002417F8011B0A22304600F001
:1051C0004FF980462E21304600F0D0F8B9454044D2
:1051D0000444F0D10A22E97C304600F041F904444D
:1051E000D0E7002B9AD1A9E7054B102210B5044651
:1051F000036001750021043031F092FD204610BD9E
:10520000D8E8070870B5074D8374056000259DF840
:105210001030057545608560C56001744274C374C3
:1052200070BD00BFD8E8070810B588B0CA7C0B7CF9
:10523000044602928A7C01924A7C102100920DEB76
:105240000100054A31F0F8FF04A9204600F05FF99B
:10525000204608B010BD00BF7CE8070810B59AB022
:10526000CA7C0B7904460E9210A88A7C0D924A7C67
:105270000C920A7C0B92CA7B0A928A7B09924A7B27
:1052800008920A7B0792CA7A06928A7A05924A7A2B
:1052900004920A7A0392CA7902928A7901924A792F
:1052A00028210092044A31F0C7FF10A9204600F0DF
:1052B0002EF920461AB010BD88E8070810B50B7DFE
:1052C00004461BB9FFF7B0FF204610BDFFF7C6FF2D
:1052D000FAE7037D13B91031084470470431FBE746
:1052E00007B501210648FFF77FFF002305481A464E
:1052F00019460093FFF786FF03B05DF804FB00BF7B
:10530000545000246C5000242DE9F04106460D460F
:1053100001EB02080C464445A4EB050707D03368AF
:10532000304614F8011B1B6898470028F3D1384613
:10533000BDE8F08170B5044608460D4632F0C0FA6B
:1053400023680246294620465B68BDE8704018473E
:1053500009B1FFF7EFBF0846704703688A685B68CA
:105360000968184708B5FFF7F3FF08BD03681B6815
:1053700018470B460A680146126818461047000095
:105380000149FFF7D7BF00BFA050080838B5054650
:10539000FFF7E3FF04462846FFF7F2FF204438BD3D
:1053A00038B50546FFF7D4FF04462846FFF7E8FF67
:1053B000204438BD38B50546FFF7DBFF04462846D4
:1053C000FFF7DEFF204438BD70B58AB00D460023DC
:1053D000012A98BF0A220AA901F8043DB5FBF2F49C
:1053E00002FB14562546F3B2092E94BF30333733EF
:1053F000DBB201F8013D002CF0D1FFF7A9FF0AB0A4
:1054000070BD2DE9F04107460E4615462AB90368DE
:10541000C9B21B68BDE8F04118470A2A05D1002926
:1054200005DBBDE8F041FFF7CFBFD2B2F9E72D2190
:10543000FFF79CFF04462A4671423846FFF7C4FF37
:105440002044BDE8F08110B42AB90368C9B25DF800
:10545000044B1B681847D2B25DF8044BFFF7B4BF8A
:10546000FFF7F1BF38B50546FFF7EDFF04462846C4
:10547000FFF786FF204438BD10B50446006808B128
:1054800031F006F8204610BD10B50446006808B19A
:1054900030F0FEFF00232360C4E9013310BD38B5AE
:1054A00004460D460068013131F004FD10B1C4E935
:1054B0000005012038BD036810B5044623B14368D8
:1054C0008B4201D3012010BD2046FFF7E8FF0028E2
:1054D000F9D0A368002BF5D122681370F3E770B5FB
:1054E0000E46114604461546FFF7E5FF20B9204653
:1054F000FFF7CAFF204670BD2A463146A5602068E6
:1055000031F010FB2268A3680021D154F2E738B5CE
:10551000002304460D468360C0E9003339B10846D4
:1055200032F0CEF9294602462046FFF7D8FF204642
:1055300038BD38B505460C46084632F0C1F921465B
:1055400002462846BDE83840FFF7C9BF10B5002322
:105550008AB00446084601A9A360C4E9003300F0FC
:10556000CBF8204601A9FFF7E4FF20460AB010BDA2
:1055700088420B4610B5044604D0096821B19A68E8
:10558000FFF7ADFF204610BDFFF77EFFFAE70023CF
:1055900010B504468360C0E90033FFF7E9FF2046F9
:1055A00010BD2DE9F04105461746884619B9002679
:1055B0003046BDE8F0819AB1846814442146FFF773
:1055C0007AFF06460028F2D0AB683A462868414682
:1055D000184431F0A7FA2B680022AC601A55E7E7AF
:1055E0000126E5E738B505460C46084632F068F96D
:1055F000214602462846BDE83840FFF7D2BF09B130
:10560000FFF7F0BF0846704710B58A68044609687E
:10561000FFF7C7FF10B92046FFF736FF204610BD41
:1056200010B5044621B92046FFF72EFF204610BDD5
:10563000FFF7E5FF0028F6D0F8E7826808B52AB939
:1056400059B10878B0FA80F0400908BD006809B97E
:105650000078F7E731F038FFF4E70120F5E770470D
:1056600013B50020009013F0BDFC044610B1009863
:1056700002B010BD01AB0422694613F091FC204634
:1056800013F0B2FCF3E7F0B58BB039B3931E222BC5
:105690002ED80A2A06D1002804DA4442012601AB9A
:1056A0001D460FE004460026F9E7B4FBF2F002FBCA
:1056B000104704460133F8B2092F94BF30305730F9
:1056C00003F8010C002CF0D1AB42EED04EB12D20EE
:1056D0004A1C0870AB4206D80023137008460BB072
:1056E000F0BD0A46F6E713F8010D02F8010BF1E7E9
:1056F0000021F3E7FFF7C7BF70B58AB061B1931E11
:10570000222B1FD801AB1D4648B9AB4207D00A4631
:10571000AB4212D80023137008460AB070BDB0FB2C
:10572000F2F402FB140620460133F4B2092E94BFB2
:105730003034573403F8014CE6E713F8010D02F852
:10574000010BE5E70021E7E710B500F047F80A4C48
:10575000FDF72EFFFEF79CFCFEF791FC4FF4E131C4
:105760000648FFF7CBFBFBF7B1F8FBF70DF8002C71
:10577000FBD0AFF30080F8E700000000884D002464
:1057800010B50446FDF712FF84423BBF2401024BD3
:105790004FF0FF30185F10BDF801002410B504462B
:1057A00017F038FB204610BD10B5044617F032FB49
:1057B000204610BD07B50749684617F068FB4FF44F
:1057C0007A720023DDE900012EF070FB03B05DF872
:1057D00004FB00BF885000241BF026BD08B5044818
:1057E00017F022FB0348BDE8084017F01DBB00BFBF
:1057F000A0500024885000241BF026BD38B50A4C68
:105800000A4D204617F080FB2046094C2A460949DC
:105810001AF020FF204617F082FB2A462046064950
:10582000BDE838401AF016BFA05000240000002444
:1058300088500024A95704089D5704082DE9F04119
:1058400004460E46FDF7B2FE84423CD21F4D2701AE
:10585000EA19D06810B11C211BF088F92046FFF727
:105860008FFF80461C201BF04DF9044600211C22AE
:1058700031F056FA4146204619F03CF8EB19012E5A
:10588000DC6010D006D3022E12D0204616F010FA9B
:10589000022103E0204616F00BFA00212046BDE865
:1058A000F04116F011BA2046BDE8F04116F0F4B907
:1058B000204616F0FDF90121F0E71C2120461BF0DF
:1058C00055F92DF0FBF9BDE8F08100BFF801002487
:1058D0002DE9F34106460F46FDF768FE86422AD2BF
:1058E0001B4D4FEA061805EB0802D468ACB93046E8
:1058F000FFF746FF06461C201BF004F904461C2255
:10590000002131F00DFA0097002301223146204694
:1059100018F0FAFF05EB0803DC600E4B0E491A463F
:10592000D3F894008842FBD123683FB1A1680B6093
:105930004FF44073536102B0BDE8F081E1681B048D
:10594000F5E71C2120461BF011F92DF0B7F900BF37
:10595000F801002400640258000300801EF0040FC8
:105960000CBFEFF30880EFF30980816911F8021C86
:10597000002932D101B590E80F10E047BDE8005092
:105980008CE80300244B93E80600914208BF70475F
:105990001A6041B91EF0100F10D1204B186820F08A
:1059A000010018600AE02CE9F00F1EF0100F08BF8C
:1059B0002CED108A81F822E0C1F838C0906B92F883
:1059C000221061F0FF0E1EF0100F08BFB0EC108A1D
:1059D000B0E8F00F80F309887047114A13689942C4
:1059E000FAD801B552F821C00FC8E047BDE8005011
:1059F000CCF80000704701B501F0E0FBBDE80140C4
:105A0000EFF3098CBEE701B501F09CFBBDE8014056
:105A1000EFF3098CB6E700007C08002434EF00E0C7
:105A200090E90708014608B530B96FF0030000F0AF
:105A30001FFA6FF0030008BD132001F09BFF30B97F
:105A40004FF0FF3000F014FA4FF0FF30F3E7002082
:105A5000F1E7000008B5EFF305834BB9EFF31083CE
:105A600033B9EFF311831BB9DFF814C000DF08BDB1
:105A70006FF0050000F0FCF96FF00500F7E700BFDC
:105A8000255A0408EFF310832BB9EFF31180003887
:105A900018BF012070470120704710B520B103786E
:105AA000F32B01D1002906DA6FF0030102F0D4FADA
:105AB0006FF0030010BD00F10C0353E8000F20EA63
:105AC000010243E8002404B1F7E7F3E7034610B509
:105AD00028B30468806860B110F0030202D1DB686B
